:020000040800F2
:1000000000500020712E00086D2900086F2900089B
:1000100071290008732900087529000800000000F4
:100020000000000000000000000000007729000828
:1000300079290008000000007B2900087D290008BC
:10004000B92E0008B92E0008B92E0008B92E0008F4
:10005000B92E0008B92E0008B92E0008B92E0008E4
:10006000B92E0008B92E0008B92E0008852900080D
:10007000B92E0008B92E000895290008A529000806
:10008000B92E0008B92E0008B92E0008B92E0008B4
:10009000B92E0008B92E0008B92E0008B92E0008A4
:1000A000B92E0008B92E0008B92E0008B92E000894
:1000B000B92E0008B92E0008B92E0008B92E000884
:1000C000B92E0008B92E0008B92E0008B92E000874
:1000D000B92E0008B92E0008B92E0008B92E000864
:1000E000B92E0008B92E0008B92E00080000000043
:1000F0000000000000000000000000000000000000
:0C01000000000000000000005FF808F1A3
:1001100010B5054C237833B9044B13B10448AFF341
:1001200000800123237010BD000E0020000000009D
:10013000ACC7000808B5034B1BB103490348AFF334
:10014000008008BD00000000040E0020ACC70008BD
:1001500081F0004102E000BF83F0004330B54FEA78
:1001600041044FEA430594EA050F08BF90EA020FE5
:100170001FBF54EA000C55EA020C7FEA645C7FEA78
:10018000655C00F0E2804FEA5454D4EB5555B8BF9B
:100190006D420CDD2C4480EA020281EA030382EA0C
:1001A000000083EA010180EA020281EA0303362D9E
:1001B00088BF30BD11F0004F4FEA01314FF4801C71
:1001C0004CEA113102D0404261EB410113F0004F83
:1001D0004FEA03334CEA133302D0524263EB43033A
:1001E00094EA050F00F0A780A4F10104D5F1200ED8
:1001F0000DDB02FA0EFC22FA05F2801841F1000133
:1002000003FA0EF2801843FA05F359410EE0A5F106
:1002100020050EF1200E012A03FA0EFC28BF4CF037
:10022000020C43FA05F3C01851EBE37101F00045ED
:1002300007D54FF0000EDCF1000C7EEB00006EEBFA
:100240000101B1F5801F1BD3B1F5001F0CD3490884
:100250005FEA30004FEA3C0C04F101044FEA4452DB
:1002600012F5800F80F09A80BCF1004F08BF5FEA62
:10027000500C50F1000041EB045141EA050130BD42
:100280005FEA4C0C404141EB0101013C28BFB1F554
:10029000801FE9D291F0000F04BF01460020B1FA9F
:1002A00081F308BF2033A3F10B03B3F120020CDA72
:1002B0000C3208DD02F1140CC2F10C0201FA0CF050
:1002C00021FA02F10CE002F11402D8BFC2F1200CB5
:1002D00001FA02F120FA0CFCDCBF41EA0C0190406B
:1002E000E41AA2BF01EB0451294330BD6FEA0404B4
:1002F0001F3C1CDA0C340EDC04F11404C4F120029F
:1003000020FA04F001FA02F340EA030021FA04F3B0
:1003100045EA030130BDC4F10C04C4F1200220FA07
:1003200002F001FA04F340EA0300294630BD21FA45
:1003300004F0294630BD94F0000F83F4801306BF0B
:1003400081F480110134013D4EE77FEA645C18BFFF
:100350007FEA655C29D094EA050F08BF90EA020F96
:1003600005D054EA000C04BF1946104630BD91EA8E
:10037000030F1EBF0021002030BD5FEA545C05D191
:100380004000494128BF41F0004130BD14F58004D0
:100390003CBF01F5801130BD01F0004545F0FE4144
:1003A00041F470014FF0000030BD7FEA645C1ABF79
:1003B000194610467FEA655C1CBF0B46024650EAB0
:1003C000013406BF52EA033591EA030F41F40021DC
:1003D00030BD00BF90F0000F04BF0021704730B562
:1003E0004FF4806404F132044FF000054FF0000137
:1003F00050E700BF90F0000F04BF0021704730B5F8
:100400004FF4806404F1320410F0004548BF4042CC
:100410004FF000013EE700BF42004FEAE2014FEA21
:1004200031014FEA02701FBF12F07F4393F07F4FFC
:1004300081F06051704732F07F4208BF704793F0FF
:100440007F4F04BF41F40021704730B54FF4607412
:1004500001F0004521F000411CE700BF50EA010215
:1004600008BF704730B54FF000050AE050EA0102BE
:1004700008BF704730B511F0004502D5404261EB2E
:1004800041014FF4806404F132045FEA915C3FF46F
:10049000D8AE4FF003025FEADC0C18BF03325FEA0C
:1004A000DC0C18BF033202EBDC02C2F1200300FABD
:1004B00003FC20FA02F001FA03FE40EA0E0021FAE2
:1004C00002F11444BDE600BF70B54FF0FF0C4CF4D0
:1004D000E06C1CEA11541DBF1CEA135594EA0C0F82
:1004E00095EA0C0F00F0DEF82C4481EA030621EABD
:1004F0004C5123EA4C5350EA013518BF52EA0335F8
:1005000041F4801143F4801338D0A0FB02CE4FF0A9
:100510000005E1FB02E506F00042E0FB03E54FF0D9
:100520000006E1FB03569CF0000F18BF4EF0010ED1
:10053000A4F1FF04B6F5007F64F5407404D25FEACD
:100540004E0E6D4146EB060642EAC62141EA555180
:100550004FEAC52040EA5E504FEACE2EB4F1FD0CC2
:1005600088BFBCF5E06F1ED8BEF1004F08BF5FEA40
:10057000500E50F1000041EB045170BD06F00046F2
:1005800046EA010140EA020081EA0301B4EB5C049F
:10059000C2BFD4EB0C0541EA045170BD41F4801197
:1005A0004FF0000E013C00F3AB8014F1360FDEBFBC
:1005B000002001F0004170BDC4F10004203C35DA98
:1005C0000C341BDC04F11404C4F1200500FA05F31B
:1005D00020FA04F001FA05F240EA020001F00042BC
:1005E00021F0004110EBD37021FA04F642EB060132
:1005F0005EEA430E08BF20EAD37070BDC4F10C045C
:10060000C4F1200500FA04F320FA05F001FA04F21F
:1006100040EA020001F0004110EBD37041F100010B
:100620005EEA430E08BF20EAD37070BDC4F1200516
:1006300000FA05F24EEA020E20FA04F301FA05F27E
:1006400043EA020321FA04F001F0004121FA04F226
:1006500020EA020000EBD3705EEA430E08BF20EAF6
:10066000D37070BD94F0000F0FD101F00046400030
:1006700041EB010111F4801F08BF013CF7D041EAB2
:10068000060195F0000F18BF704703F000465200B6
:1006900043EB030313F4801F08BF013DF7D043EA87
:1006A0000603704794EA0C0F0CEA135518BF95EA3D
:1006B0000C0F0CD050EA410618BF52EA4306D1D1C4
:1006C00081EA030101F000414FF0000070BD50EAE3
:1006D000410606BF1046194652EA430619D094EA6D
:1006E0000C0F02D150EA013613D195EA0C0F05D157
:1006F00052EA03361CBF104619460AD181EA0301AB
:1007000001F0004141F0FE4141F470014FF0000062
:1007100070BD41F0FE4141F4780170BD70B54FF0FD
:10072000FF0C4CF4E06C1CEA11541DBF1CEA13557D
:1007300094EA0C0F95EA0C0F00F0A7F8A4EB05045F
:1007400081EA030E52EA03354FEA013100F0888056
:100750004FEA03334FF0805545EA131343EA12631F
:100760004FEA022245EA111545EA10654FEA0026D4
:100770000EF000419D4208BF964244F1FD0404F58D
:10078000407402D25B084FEA3202B61A65EB0305E9
:100790005B084FEA32024FF480104FF4002CB6EBA6
:1007A000020E75EB030E22BFB61A754640EA0C0026
:1007B0005B084FEA3202B6EB020E75EB030E22BF66
:1007C000B61A754640EA5C005B084FEA3202B6EBA7
:1007D000020E75EB030E22BFB61A754640EA9C0066
:1007E0005B084FEA3202B6EB020E75EB030E22BF36
:1007F000B61A754640EADC0055EA060E18D04FEAF4
:10080000051545EA16754FEA06164FEAC30343EA93
:1008100052734FEAC2025FEA1C1CC0D111F4801F60
:100820000BD141EA00014FF000004FF0004CB6E759
:1008300011F4801F04BF01430020B4F1FD0C88BFF8
:10084000BCF5E06F3FF6AFAEB5EB030C04BFB6EB03
:10085000020C5FEA500C50F1000041EB045170BDF6
:100860000EF0004E4EEA113114EB5C04C2BFD4EB23
:100870000C0541EA045170BD41F480114FF0000EA7
:10088000013C90E645EA060E8DE60CEA135594EA23
:100890000C0F08BF95EA0C0F3FF43BAF94EA0C0F26
:1008A0000AD150EA01347FF434AF95EA0C0F7FF49B
:1008B00025AF104619462CE795EA0C0F06D152EAEF
:1008C00003353FF4FDAE1046194622E750EA4106D3
:1008D00018BF52EA43067FF4C5AE50EA41047FF4E4
:1008E0000DAF52EA43057FF4EBAE12E74FF0FF3C49
:1008F00006E000BF4FF0010C02E000BF4FF0010C1A
:100900004DF804CD4FEA410C7FEA6C5C4FEA430C92
:1009100018BF7FEA6C5C1BD001B050EA410C0CBFE1
:1009200052EA430C91EA030F02BF90EA020F002043
:10093000704710F1000F91EA030F58BF994208BFAA
:1009400090422CBFD8176FEAE37040F00100704767
:100950004FEA410C7FEA6C5C02D150EA013C07D1BE
:100960004FEA430C7FEA6C5CD6D152EA033CD3D009
:100970005DF8040B704700BF8446104662468C4603
:100980001946634600E000BF01B5FFF7B7FF002836
:1009900048BF10F1000F01BD4DF808EDFFF7F4FF5F
:1009A0000CBF012000205DF808FB00BF4DF808EDEA
:1009B000FFF7EAFF34BF012000205DF808FB00BF0D
:1009C0004DF808EDFFF7E0FF94BF012000205DF82F
:1009D00008FB00BF4DF808EDFFF7CEFF94BF0120E4
:1009E00000205DF808FB00BF4DF808EDFFF7C4FFDD
:1009F00034BF012000205DF808FB00BF4FEA410C26
:100A00007FEA6C5C02D150EA013C0AD14FEA430C08
:100A10007FEA6C5C02D152EA033C02D14FF0000045
:100A200070474FF0010070474FEA4102B2F1E043D6
:100A300024BFB3F5001CDCF1FE5C0DD901F0004CC5
:100A40004FEAC0024CEA5070B2F1004F40EB830015
:100A500008BF20F00100704711F0804F21D113F141
:100A60003872BCBF01F00040704741F480114FEA7A
:100A70005252C2F11802C2F1200C10FA0CF320FA03
:100A800002F018BF40F001004FEAC1234FEAD32320
:100A900003FA0CFC40EA0C0023FA02F34FEA43038A
:100AA000CCE77FEA625307D150EA01331EBF4FF013
:100AB000FE4040F44000704701F0004040F0FE402E
:100AC00040F40000704700BF80F0004002E000BF2B
:100AD00081F0004142001FBF5FEA410392EA030F29
:100AE0007FEA226C7FEA236C6AD04FEA1262D2EB73
:100AF0001363C1BFD218414048404140B8BF5B4278
:100B0000192B88BF704710F0004F40F4000020F010
:100B10007F4018BF404211F0004F41F4000121F026
:100B20007F4118BF494292EA030F3FD0A2F1010270
:100B300041FA03FC10EB0C00C3F1200301FA03F1AE
:100B400000F0004302D5494260EB4000B0F5000FD1
:100B500013D3B0F1807F06D340084FEA310102F190
:100B60000102FE2A51D2B1F1004F40EBC25008BF42
:100B700020F0010040EA03007047490040EB00000C
:100B8000013A28BFB0F5000FEDD2B0FA80FCACF10D
:100B9000080CB2EB0C0200FA0CF0AABF00EBC2503A
:100BA00052421843BCBFD0401843704792F0000F28
:100BB00081F4000106BF80F400000132013BB5E77B
:100BC0004FEA41037FEA226C18BF7FEA236C21D0F1
:100BD00092EA030F04D092F0000F08BF0846704756
:100BE00090EA010F1CBF0020704712F07F4F04D124
:100BF000400028BF40F00040704712F100723CBF37
:100C000000F50000704700F0004343F0FE4040F460
:100C1000000070477FEA226216BF08467FEA23631E
:100C20000146420206BF5FEA412390EA010F40F409
:100C3000800070474FF0000304E000BF10F0004355
:100C400048BF40425FEA000C08BF704743F096433C
:100C500001464FF000001CE050EA010208BF704757
:100C60004FF000030AE000BF50EA010208BF7047DE
:100C700011F0004302D5404261EB41015FEA010CF3
:100C800002BF84460146002043F0B64308BFA3F1EB
:100C90008053A3F50003BCFA8CF2083AA3EBC253CD
:100CA00010DB01FA02FC634400FA02FCC2F12002EC
:100CB000BCF1004F20FA02F243EB020008BF20F023
:100CC0000100704702F1200201FA02FCC2F1200289
:100CD00050EA4C0021FA02F243EB020008BF20EA7E
:100CE000DC7070474FF0FF0C1CEAD0521EBF1CEAAC
:100CF000D15392EA0C0F93EA0C0F6FD01A4480EA9A
:100D0000010C400218BF5FEA41211ED04FF0006382
:100D100043EA501043EA5111A0FB01310CF00040AE
:100D2000B1F5000F3EBF490041EAD3715B0040EAD4
:100D3000010062F17F02FD2A1DD8B3F1004F40EBA4
:100D4000C25008BF20F00100704790F0000F0CF077
:100D5000004C08BF49024CEA502040EA51207F3A3B
:100D6000C2BFD2F1FF0340EAC250704740F4000016
:100D70004FF00003013A5DDC12F1190FDCBF00F007
:100D800000407047C2F10002410021FA02F1C2F1B5
:100D9000200200FA02FC5FEA310040F1000053EA51
:100DA0004C0308BF20EADC70704792F0000F00F09F
:100DB000004C02BF400010F4000F013AF9D040EAA5
:100DC0000C0093F0000F01F0004C02BF490011F439
:100DD000000F013BF9D041EA0C018FE70CEAD15337
:100DE00092EA0C0F18BF93EA0C0F0AD030F0004CB7
:100DF00018BF31F0004CD8D180EA010000F000406B
:100E0000704790F0000F17BF90F0004F084691F028
:100E1000000F91F0004F14D092EA0C0F01D1420262
:100E20000FD193EA0C0F03D14B0218BF084608D12B
:100E300080EA010000F0004040F0FE4040F4000075
:100E4000704740F0FE4040F4400070474FF0FF0C08
:100E50001CEAD0521EBF1CEAD15392EA0C0F93EA4F
:100E60000C0F69D0A2EB030280EA010C49024FEAA1
:100E7000402037D04FF0805343EA111143EA10135A
:100E80000CF000408B4238BF5B0042F17D024FF412
:100E9000000C8B4224BF5B1A40EA0C00B3EB510FED
:100EA00024BFA3EB510340EA5C00B3EB910F24BFD6
:100EB000A3EB910340EA9C00B3EBD10F24BFA3EB5B
:100EC000D10340EADC001B0118BF5FEA1C1CE0D123
:100ED000FD2A3FF650AF8B4240EBC25008BF20F0D6
:100EE000010070470CF0004C4CEA50207F32C2BF2A
:100EF000D2F1FF0340EAC250704740F400004FF0C7
:100F00000003013A37E792F0000F00F0004C02BFF7
:100F1000400010F4000F013AF9D040EA0C0093F0C1
:100F2000000F01F0004C02BF490011F4000F013B1B
:100F3000F9D041EA0C0195E70CEAD15392EA0C0F83
:100F400008D142027FF47DAF93EA0C0F7FF470AFBB
:100F5000084676E793EA0C0F04D14B023FF44CAFFE
:100F600008466EE730F0004C18BF31F0004CCAD193
:100F700030F000427FF45CAF31F000437FF43CAFCF
:100F80005FE700BF4FF0FF3C06E000BF4FF0010CF1
:100F900002E000BF4FF0010C4DF804CD4FEA4002D3
:100FA0004FEA41037FEA226C18BF7FEA236C11D01D
:100FB00001B052EA530C18BF90EA010F58BFB2EBD0
:100FC000030088BFC81738BF6FEAE17018BF40F050
:100FD000010070477FEA226C02D15FEA402C05D104
:100FE0007FEA236CE4D15FEA412CE1D05DF8040B89
:100FF000704700BF844608466146FFE70FB5FFF71C
:10100000C9FF002848BF10F1000F0FBD4DF808EDD3
:10101000FFF7F4FF0CBF012000205DF808FB00BFC4
:101020004DF808EDFFF7EAFF34BF012000205DF81E
:1010300008FB00BF4DF808EDFFF7E0FF94BF01206B
:1010400000205DF808FB00BF4DF808EDFFF7D2FF68
:1010500094BF012000205DF808FB00BF4DF808EDAB
:10106000FFF7C8FF34BF012000205DF808FB00BF78
:101070004FEA4002B2F1FE4F0FD34FF09E03B3EBA5
:1010800012620DD94FEA002343F0004310F0004FE5
:1010900023FA02F018BF404270474FF0000070473B
:1010A00012F1610F01D1420205D110F0004008BFDA
:1010B0006FF0004070474FF00000704742000ED2C2
:1010C000B2F1FE4F0BD34FF09E03B3EB126209D483
:1010D0004FEA002343F0004323FA02F070474FF039
:1010E0000000704712F1610F01D1420202D14FF0AE
:1010F000FF3070474FF00000704700BF03685A0090
:101100004CBF43F0004323F000431844704700BF36
:101110002DE9F84339B34F1E044615463E464FF0BD
:10112000000808EB060101EBD171491004EBC1097D
:101130004846FFF7E3FF0346C80008308F422044CB
:101140000BD0AB420BD8FFF7D9FF0138A84201F111
:101150000108E6D34846BDE8F883AB42FAD9884592
:1011600001D04E1EDDE74FF000094846BDE8F88388
:10117000012807D0022807D0044B00280CBF1846CE
:101180000020704702487047024870476118000805
:10119000651800086918000830B5244B044683B070
:1011A0008D1E3BB3284601A9AFF30080E8B1019939
:1011B0002A46FFF7ADFF0146B8B1FFF79FFF4B6826
:1011C000A064012B2ED0002B27DB081DFFF796FF14
:1011D0000023C4E913030368002B12DBFFF78EFF23
:1011E00003460020236103B030BD002309202361A2
:1011F00003B030BD0E4B0F491846C91AC9100191F2
:10120000D6E7C3F30360FFF7B3FF0028034614BF1C
:1012100000200920236103B030BD0123081DC4E96B
:101220001303D8E7002305202361DCE7000000005A
:101230004CCC00085CCD0008036810B5DA07044602
:1012400006D49B0700F1480009D500F05DFC236837
:10125000590709D51A070ED5DB0613D510BD00F0C6
:101260004BFC23685907F5D404F1D00000F054FC7E
:1012700023681A07F0D404F5A87000F055FC236821
:10128000DB06EBD404F5E870BDE8104000F090BC3C
:10129000092070470346006800B11844704700BF3A
:1012A000704700BF70B504460E462046316CFFF70C
:1012B00073FF054698B9D6F840C032462146012052
:1012C0002369C4F814C098470828EED0072806D12F
:1012D0002846316CFFF7E4FF301D00F001FC05F0FB
:1012E00041FA00BF2DE9F0474FF0000AADF5727DDD
:1012F0000DF10C0E01F1040CC768D0F818800646F9
:101300001446BCE80F00AEE80F00BCE80F00AEE8E2
:101310000F00BCE80F00AEE80F009CE80F0002AD24
:101320008EE80F00C5F800A021E02B6C4FF4F0729E
:10133000294673617AA800F06FFE31465046336942
:101340007AAA9847889C82466C643346324649465E
:101350000120CDE90058B8470446F0B94FF4F072C7
:1013600028467AA900F058FEBAF1080F1BD1304682
:10137000296CFFF711FF04F109095FFA89FA0446A5
:101380000028D2D0A96B3346696432460120CDE9EA
:1013900000584AF01001B84700B1092420460DF565
:1013A000727DBDE8F087BAF1070FF6D12046296CAF
:1013B000FFF776FF03A800F093FB00BF406C704777
:1013C000F0B54FF0FF37CB6BF9B00B6401AC01F116
:1013D000040C0E460546BCE80F000FC4BCE80F0025
:1013E0000FC4BCE80F000FC49CE80F0084E80F0096
:1013F000009706E06A4629462B6998470828044664
:1014000008D128461099FFF7C7FE0028F2D009201E
:1014100079B0F0BD6846FFF70FFF062CF7D13146D3
:101420002846FFF73FFF00BF10B414468461DC6B11
:10143000C16000221C64194610BC53E770B54369B3
:10144000C6680B64AEB90A46036904460D460146F8
:1014500002209847072805D008280FD129462046A2
:10146000FFF720FF3046296CFFF71AFF281D00F018
:1014700037FB0122FFF736FF05F074F905F072F92A
:10148000C2682AB1D1F83CC00022C1F840C029E7A7
:1014900096E700BF704700BF836801460BB101208B
:1014A00018477047012912D009D873B90F2A0CD8F0
:1014B00000EB820042681846009B1A6070470339AF
:1014C000012994BF0120022070470220704708467E
:1014D000704700BF002300B585B00A4603A90091FC
:1014E0001946FFF7DFFF039805B05DF804FB00BF66
:1014F000012912D009D873B90F2A0CD8009900EB32
:10150000820209681846516070470339012994BF67
:10151000012002207047022070470846704700BF34
:10152000002310B584B003AC039200940A46194618
:10153000FFF7DEFF04B010BD70B54FF0FF36D36B80
:10154000ADF50E7D13640DF15C0E02F1040C054641
:101550000C46BCE80F00AEE80F00BCE80F00AEE898
:101560000F00BCE80F00AEE80F009CE80F008EE80B
:101570000F00169612E00C2116A86A46FFF7D0FF5E
:10158000214616A8A84778B969460820049B16AAE0
:1015900098470528064608D0092805D068462699A8
:1015A000FFF7FAFD0028E6D0092616A8FFF744FE4B
:1015B00030460DF50E7D70BD2DE9F04F1E46CC6C0A
:1015C00089B054F8043B0D46174600F00308069412
:1015D000002E79D002228DF81C201A0C8DF81D20C7
:1015E0001B04D2B2059304EB82042B6DB8F1020FF9
:1015F00008BFAC6B13F001030CD0384605A900F00E
:1016000071FB18B9082009B0BDE8F08F092009B0B6
:10161000BDE8F08FD4F800A0BAF1000FEDD001932F
:1016200000F008030293022E4AD0B4F800A0B4F8E8
:1016300002900434AA6C0F21384629F0010B934420
:10164000FFF748FF834539D82AF001025A44824205
:1016500094BF002001204FEA490303F002030AF07F
:10166000010A43EA0A03012B49D0022B32D0002B96
:10167000CCD1B8F1000F02D0002840F0CE80043465
:10168000D4F800A0BAF1000FCDD1384605A900F07A
:1016900029FB0028BAD1019B002BB3D00F2138467B
:1016A000FFF718FF0E2102463846FFF739FF38468C
:1016B0000F216A4AFFF734FF0720A8E70020CAE796
:1016C000D4F804900834B5E71B0205930323ADF862
:1016D0001C308AE7236823F0004BB8F1000F45D196
:1016E00028B1029A002A5CD0BBF1000F74D0002B05
:1016F00000DA04340BF1010B04EB8B04C0E7B8F102
:10170000000F19D1B0B163682268991C4FEAD272F8
:101710003FF47CAF05F158010133049100F0918052
:10172000201DFFF7B7FD04AB01462846AFF300804C
:1017300000285CD10834A3E70D213846D5F8209065
:10174000FFF7C8FE8145F5D1AB6A9C42F2D1204635
:10175000FFF7D4FC0F2102463846FFF7E1FE38467A
:101760002A460021FFF7DCFE072050E70D2138460E
:10177000D5F82090FFF7AEFE814501D02368B6E78B
:10178000AB6A9C42FAD104230022C5E90B23E3187B
:10179000C5F828B06B632368002B5ADB0123019343
:1017A000A8E705F15803CDF80C809146B04604F146
:1017B000040A1E460EE050460496FFF76BFD002219
:1017C000014604AB284609F101090AF1040AAFF306
:1017D0000080E8B9D945EED10D213846FFF77AFEF1
:1017E0000346049A0620C5E909242B620FE78146C7
:1017F0000D213846FFF76EFEB9F1020F286225D1A0
:101800002B46049A43F82C2F6B620620AC62FEE64E
:1018100046462368DDF80C8069E72046FFF76EFC3A
:1018200002460434AC6328461446AFF30080002817
:101830003FF4ECAE384622460F21FFF771FE072039
:10184000E5E60D213846FFF745FE2862049B6B62F2
:10185000DBE70BF1010004EB800079E700000000FA
:101860000023A9E60123A7E60223A5E62DE9F0431C
:10187000064615461C46C3B0042900F2B880DFE8CE
:1018800001F09C56B62D0300002C40F0B080102AC9
:1018900000F2AD800368D80600F1F18020AF384631
:1018A00000F090F9012438460023B16B04FA03F2EA
:1018B0002A4203F1010305D00A4652F804CB11462F
:1018C000C0F800C0042B00F10400EFD13846B1632A
:1018D00000F06EF9002043B0BDE8F083032C40F027
:1018E000868094B204EB1243102B4FEA12457ED847
:1018F00003681F0700F1CB8020AF384600F036F9AF
:10190000B26B07EBC50154B10B4601EBC401D01A11
:10191000E4001D5843F8045B8B42FAD12244384658
:10192000B26300F001F9002043B0BDE8F083012C60
:101930004FEA124895B256D0052C58D108EB05094C
:10194000B9F1200F53D8B8F10F0F73D9A946002D64
:1019500040F08480B36B65B320AF4FF0000907EB14
:10196000C807043F03EBC50553F8041BAB4247F817
:10197000041FF9D1B9F1000F0FD06F46414610296D
:1019800038BF102107EBC101843903EBC90553F8B7
:10199000040BAB4241F8040FF9D1012C7FD0B8F110
:1019A0000F0FB56342D9B9F1000F02D0684600F0BD
:1019B000B3F8002043B0BDE8F083C4B92346012446
:1019C000826B371DA8B204FA03F101421CBF52F822
:1019D000041B47F823100133102BF4D115F40050E9
:1019E000E7D1B26304E008EB0503102B03D9022012
:1019F00043B0BDE8F083B8F10F0FF8D83368DA07C9
:101A000006D5304623F0030340F8483B00F078F851
:101A100020AF384600F074F8B36B002D9DD11D4601
:101A200004353846B56300F067F8C2E720A800F037
:101A30006BF8B8E7B9F1100F3FD9A9F11009336875
:101A4000D90708D5304623F0010343F0020340F8DC
:101A5000483B00F05DF8B9F1000F31D033685A0708
:101A60001FD4B8F10F0F24D96F46C8F110053846BE
:101A700000F056F8002DB36B80DD20AF6FE723F048
:101A80001003336006F5E87000F09CF806E723F0D9
:101A90000803036000F5A87000F068F82CE720AF99
:101AA000BEE7304623F0040340F8D03B00F038F89E
:101AB000D7E720A800F02CF8D6E74FF00009BEE7E2
:101AC000B8F10F0F3FF646AF20AF384600F020F8D0
:101AD000B36B002D7FF441AF384600F015F868E78E
:101AE00000F1340191E838009C46A6464CF8045DAC
:101AF00090E8FF0FE54600BD90EC210B704700BF5A
:101B000080EC210B704700BF90EC200B704700BFAA
:101B100080EC200B704700BFD0EC200B704700BF5B
:101B2000C0EC200B704700BFF0EC0201F0EC02119A
:101B3000F0EC0221F0EC0231F0EC0241F0EC025149
:101B4000F0EC0261F0EC0271F0EC0281F0EC029139
:101B5000F0EC02A1F0EC02B1F0EC02C1F0EC02D129
:101B6000F0EC02E1F0EC02F1704700BFE0EC0201A2
:101B7000E0EC0211E0EC0221E0EC0231E0EC024189
:101B8000E0EC0251E0EC0261E0EC0271E0EC028179
:101B9000E0EC0291E0EC02A1E0EC02B1E0EC02C169
:101BA000E0EC02D1E0EC02E1E0EC02F1704700BFB2
:101BB000B0FC0181B0FC0191B0FC01A1B0FC01B10D
:101BC000704700BFA0FC0181A0FC0191A0FC01A115
:101BD000A0FC01B1704700BFEC4600B52DE90050F4
:101BE0002DE9FF1F4FF000032DE90C0001A9FFF7BD
:101BF000E7FBDDF840E012B0704700BFEC4600B5EF
:101C00002DE900502DE9FF1F4FF000032DE90C00D6
:101C100001A9FFF713FCDDF840E012B0704700BFE8
:101C2000EC4600B52DE900502DE9FF1F4FF00003F1
:101C30002DE90C0001A9FFF723FCDDF840E012B00C
:101C4000704700BFEC4600B52DE900502DE9FF1F9D
:101C50004FF000032DE90C0001ABFFF7E5FBDDF8C9
:101C600040E012B0704700BFEC4600B52DE90050CF
:101C70002DE9FF1F4FF000032DE90C0001AAFFF72B
:101C80005BFCDDF840E012B0704700BF027A03460B
:101C90007AB9427AA2B14FF0030C4168013A42721C
:101CA00008680A1D5A60020283F808C0000E1A6014
:101CB00070470068013A1A7202021A60000E7047FB
:101CC000B0207047002300B585B003A900910C2215
:101CD0001946FFF7E7FB039805B05DF804FB00BF6A
:101CE000F0E700BF2DE9F0434FF0000805460E462F
:101CF00085B03046FFF7CAFFB028044600F0BA802E
:101D0000070620D500F0F003802B4DD0902B36D065
:101D1000A02B60D0B02B73D0C02B00F08A8000F0D5
:101D2000F803D02B0BD100F007020132052301216B
:101D3000284642F40022FFF799FD0028D9D0092057
:101D400005B0BDE8F0838300DBB21F1D00230DF159
:101D50000C0919460D222846CDF80090FFF7A2FB8A
:101D6000039B60064CBFDF1BFF1800230D22284693
:101D70001946CDF800900397FFF7BAFBB9E700F0DA
:101D80000D030D2BDBD0002303AF194600F00F022B
:101D900000972846FFF786FB00230D2228461946A8
:101DA0000097FFF7A5FBA4E73046FFF76FFF24027B
:101DB0002043B0F5004FC2D0002304011946284645
:101DC000A2B2FFF753FD0028B9D114F4004F18BF99
:101DD0004FF001088DE7C3434FF47F6203F0070320
:101DE0001A410023010702F47F6248BF42F4804297
:101DF00028461946FFF73AFD00283FF47AAF9EE7E0
:101E0000B1283CD0B22800F0B080B3284AD000F00E
:101E1000FC03B42B93D0012300F007021A44284698
:101E2000194642F40022FFF721FD00283FF461AF7C
:101E300085E7C6284FD0C72861D000F0F803C02B33
:101E400070D0C8287CD0C9287FF479AF3046FFF71E
:101E50001DFF0523024601212846140302F00F024C
:101E600004F470240A442243FFF700FD00283FF4E5
:101E700040AF64E7B8F1000F1CD0002060E73046A7
:101E8000FFF704FF024600283FF459AF10F0F003BB
:101E90007FF455AF19462846FFF7E8FC00283FF4C9
:101EA00028AF4CE73046FFF7F1FE01230246194602
:101EB0002846D2E703AC43460E224146284600940A
:101EC000FFF7F0FA43460F22284641460094FFF7F9
:101ED0000FFB404634E73046FFF7D8FE02460323A7
:101EE000140302F00F0204F470240132284619464C
:101EF0002243FFF7BBFC00283FF4FBAE1FE7304650
:101F0000FFF7C4FE024600283FF419AF10F0F003BB
:101F10007FF415AF04212846FFF7A8FC00283FF402
:101F2000E8AE0CE7032300F00F0201322846194601
:101F300042F42022FFF79AFC00283FF4DAAEFEE6D6
:101F40003046FFF7A3FE0246012102F0F00402F042
:101F50000F0210340A440523284642EA0432FFF7F0
:101F600085FC00283FF4C5AEE9E600230DF10C091D
:101F70000D2219462846CDF80090FFF793FA304617
:101F8000FFF784FE02064FF002040CD5039B00F01D
:101F90007F00A040184403903046FFF777FE030609
:101FA00004F10704F2D4039B00F07F02A24003F582
:101FB00001731A440023039228460D221946CDF8D6
:101FC0000090FFF795FA94E60B464FF0030C00B52E
:101FD000C26C1846536885B00832029201A91A0EE5
:101FE0001B028DF80CC001938DF80D20FFF77AFECF
:101FF00005B05DF804FB00BF08B5FFF771FE806C0B
:1020000008BD00BF08B5FFF76BFEC06CC379023393
:1020100000EB830008BD00BF844641EA000313F0D3
:10202000030349D1403A23D30B6803604B684360F4
:102030008B688360CB68C3600B6903614B69436144
:102040008B698361CB69C3610B6A03624B6A43622C
:102050008B6A8362CB6AC3620B6B03634B6B436314
:102060008B6B8363CB6BC36340304031403ADBD230
:1020700030320BD30B6803604B6843608B6883601E
:10208000CB68C36010301031103AF3D20C3205D354
:1020900051F8043B40F8043B043AF9D2043208D02A
:1020A000D2071CBF11F8013B00F8013B01D30B889C
:1020B00003806046704700BF082A13D38B07B1D056
:1020C00010F00303AED0C3F10403D21ADB071CBF28
:1020D00011F8013B00F8013BA4D331F8023B20F892
:1020E000023B9FE7043AD9D3013A11F8013B00F8CB
:1020F000013BF9D20B7803704B7843708B78837077
:10210000604670474FEA410212F5001215D211D510
:102110006FF47873B3EB625212D94FEAC12343F0E4
:10212000004343EA505311F0004F23FA02F018BF66
:10213000404270474FF00000704750EA013005D12F
:1021400011F0004008BF6FF0004070474FF00000F2
:10215000704700BF53B94AB9002908BF00281CBF07
:102160004FF0FF314FF0FF3000F076B9ADF1080CC1
:102170006DE904CE00F006F8DDF804E0DDE90223A5
:1021800004B070472DE9F047089E0D460446884686
:10219000002B4DD18A42944668D9B2FA82F252B1EC
:1021A00001FA02F3C2F1200120FA01F10CFA02FC5B
:1021B00041EA030894404FEA1C41B8FBF1F71FFACB
:1021C0008CFE01FB178807FB0EF0230C43EA084343
:1021D00098420AD91CEB030307F1FF3580F01E81FA
:1021E000984240F21B81023F63441B1AB3FBF1F09B
:1021F00001FB103300FB0EFEA4B244EA0344A645E3
:102200000AD91CEB040400F1FF3380F00981A645D4
:1022100040F20681644402380021A4EB0E0440EA37
:1022200007401EB10023D440C6E90043BDE8F08753
:102230008B4208D9002E00F0EE800021C6E900058F
:102240000846BDE8F087B3FA83F100294AD1AB42D2
:1022500002D3824200F2FC80841A65EB0303012062
:102260009846002EE2D0C6E90048DFE702B9FFDE5B
:10227000B2FA82F2002A40F09180A1EB0C00012119
:102280004FEA1C471FFA8CFEB0FBF7F307FB130065
:10229000250C45EA00450EFB03F0A84208D91CEBCB
:1022A000050503F1FF3802D2A84200F2CE80434672
:1022B0002D1AB5FBF7F007FB10550EFB00FEA4B27C
:1022C00044EA0544A64508D91CEB040400F1FF3597
:1022D00002D2A64500F2B6802846A4EB0E0440EADE
:1022E00003409EE7C1F120078B4022FA07FC4CEA2D
:1022F000030C25FA07FA4FEA1C49BAFBF9F820FA51
:1023000007F309FB18AA8D401FFA8CFE1D4300FA43
:1023100001F308FB0EF02C0C44EA0A44A04202FA36
:1023200001F20BD91CEB040408F1FF3A80F088801D
:10233000A04240F28580A8F102086444241AB4FB4C
:10234000F9F009FB104400FB0EFEADB245EA04446F
:10235000A64508D91CEB040400F1FF356CD2A64554
:102360006AD90238644440EA0840A0FB0295A4EB15
:102370000E04AC42C846AE4656D353D0002E69D0A8
:10238000B3EB080264EB0E0422FA01F304FA07F738
:102390001F43CC40C6E90074002147E70CFA02FC59
:1023A000C2F1200125FA01F34FEA1C4720FA01F19E
:1023B00095400D43B3FBF7F107FB11331FFA8CFE79
:1023C000280C40EA034001FB0EF3834204FA02F4B6
:1023D00008D91CEB000001F1FF382FD283422DD920
:1023E00002396044C01AB0FBF7F307FB1300ADB22B
:1023F00045EA004503FB0EF0A84208D91CEB050591
:1024000003F1FF3816D2A84214D9023B6544281ABA
:1024100043EA014138E73146304607E72F46E4E614
:102420001846F9E64B45A9D2B9EB020865EB0C0E4C
:102430000138A3E74346EAE7284694E74146D1E757
:10244000D0467BE76444023847E7023B65442FE708
:10245000084606E73146E9E6704700BF00B585B09B
:1024600000230193029303932448254A02604FF40A
:10247000807282600122027303754FF42022C261D0
:1024800043600423036101F0C5FE40BB00230193B8
:1024900001220292039301A9184801F011FD08BB23
:1024A000012301930223029301A9144801F008FDBE
:1024B000D8B9022301930323029301A90F4801F025
:1024C000FFFCA8B903230193042302930DEB03013E
:1024D0000A4801F0F5FC70B905B05DF804FB00F0A6
:1024E00069F9D3E700F066F9DAE700F063F9E0E7AD
:1024F00000F060F9E6E700F05DF9EDE71C0E002062
:102500000024014010B586B0002302930393049386
:10251000059302681E4B9A4201D006B010BD0446D6
:1025200003F56C439A6942F400729A619A6902F465
:1025300000720092009A9A6942F004029A619B69C3
:1025400003F004030193019B0F23029303230393DE
:1025500002A9104802F09EF90F48104B03600023B7
:10256000436083608022C2604FF4807202614FF446
:102570008062426120228261C36102F077F818B95B
:10258000054B23625C62C8E700F014F9F8E700BF6E
:1025900000240140000801404C0E002008000240C9
:1025A00008B50B480B4B0360102343600023836086
:1025B000C36003614361037643768376C376037712
:1025C000437701F02BFF00B908BD00F0F3F8FBE7FB
:1025D000900E00200064004010B586B000230293E6
:1025E0000393049305930268164B9A4201D006B0F8
:1025F00010BD03F5D633DA6942F00072DA61DA69A8
:1026000002F000720092009A9A6942F004029A6104
:102610009B6903F004030193019B4FF40063029351
:10262000094C02A9204602F035F94FF48053029379
:10263000022303930323059302A9204602F02AF9FB
:10264000D5E700BF006400400008014000B583B03A
:10265000124B5A6942F001025A615B6903F00103AF
:102660000193019B002211460B2001F08FFF0B20EC
:1026700001F0C4FF002211460E2001F087FF0E205A
:1026800001F0BCFF002211460F2001F07FFF0F2058
:1026900001F0B4FF03B05DF804FB00BF001002407E
:1026A0002DE9F04389B0002404940594069407941E
:1026B0003C4B9A6942F010029A619A6902F010024A
:1026C0000092009A9A6942F020029A619A6902F097
:1026D00020020192019A9A6942F004029A619A6971
:1026E00002F004020292029A9A6942F008029A6188
:1026F0009B6903F008030393039BDFF8AC9001226E
:102700004FF46041484602F0D7F9DFF8A080224636
:102710001021404602F0D0F9254D22464FF40041E9
:10272000284602F0C9F94FF4604304930127059746
:1027300006970226079604A9484602F0ABF8102334
:1027400004930597069407960DEB0301404602F0AB
:10275000A1F84FF4806304930594069704A92846D2
:1027600002F098F84FF4006304930594069604A9C8
:10277000284602F08FF84FF48043049305940694A2
:1027800004A9284602F086F84FF400430493059705
:102790000696079604A9284602F07CF809B0BDE821
:1027A000F08300BF0010024000100140000801400B
:1027B000000C014072B6FEE700B595B0282200215A
:1027C0000DEB020004F000F8002305930693079335
:1027D00008930993019302930393049301220A92AD
:1027E0004FF480330B930E920222119212934FF406
:1027F000E01313930AA802F07BF9C8B90F230593DD
:1028000002210691002307934FF4806208920993F6
:1028100005A802F09FFB68B9022301934FF400431F
:10282000039301A802F072FC30B915B05DF804FB07
:10283000FFF7C0FFFFF7BEFFFFF7BCFF08B501F0D1
:10284000C9FAFFF7B9FFFFF72BFFFFF7FFFEFFF70E
:1028500005FEFFF7A5FE00F009F800F0C3F900F04F
:102860004BFA00F007F901F07DFAFEE708B50F48D2
:102870000F4B03604FF482734360002383604FF477
:102880000062C2600361012242614FF40072826102
:102890001022C2610362436283620A23C36202F0B0
:1028A000E3FD00B908BDFFF785FFFBE7B80E002088
:1028B0000030014010B586B00023029303930493C7
:1028C00005930268164B9A4201D006B010BD03F57D
:1028D00060439A6942F480529A619A6902F4805284
:1028E0000092009A9A6942F004029A619B6903F08F
:1028F00004030193019BA023029302230393032368
:102900000593084C02A9204601F0C4FF402302931E
:1029100000230393049302A9204601F0BBFFD4E7F0
:10292000003001400008014082B00E4B9A6942F02D
:1029300001029A619A6902F001020092009ADA6932
:1029400042F08052DA61DB6903F080530193019B0E
:10295000054A536823F0E06343F00073536002B00C
:10296000704700BF0010024000000140FEE7FEE794
:10297000FEE7FEE7FEE770477047704708B501F0D5
:102980003BFA08BD08B5024801F0E2FE08BD00BFF1
:102990004C0E002008B5024801F0DAFE08BD00BF69
:1029A000E80F002008B5024801F0D2FE08BD00BFC4
:1029B000A40F00200120704708B503F0DBFE1623AA
:1029C00003604FF0FF3008BD08B54FF0FF31FFF74F
:1029D000F3FFFEE770B50C461646002506E0AFF3A0
:1029E0000080214601F8010B01350C46B542F6DBAB
:1029F000304670BD70B50C461646002504E014F84C
:102A0000010B00F009FA0135B542F8DB304670BD24
:102A10004FF0FF3070474FF400534B600020704779
:102A2000012070470020704710B503460C4A0D493D
:102A30000D48006840B10C4800680344521A9342A4
:102A400006D8094A136010BD0748084C0460F2E735
:102A500003F090FE0C2303604FF0FF30F3E700BF5C
:102A60000050002000040000100F0020B8120020C9
:102A70007047000000B593B000230E930F9310939E
:102A8000119309930A930B930C930D930793089357
:102A900000930193029303930493059306932848AC
:102AA000284A02604360202282604FF44862C2607C
:102AB0000361836103F0DCF800282ED14FF48053CA
:102AC0000E930EA91E4803F0D7F948BB1C4803F02B
:102AD000FBF840BB0623099300230A9309A9184871
:102AE00003F0A5FA10BB202307938023089307A9BE
:102AF000134803F043FBE0B96023009340F67E43A4
:102B000001930023029304930C2269460C4803F0BE
:102B100039F988B913B05DF804FBFFF74BFECDE738
:102B2000FFF748FED2E7FFF745FED3E7FFF742FE87
:102B3000D9E7FFF73FFEDFE7FFF73CFEEAE700BF1C
:102B40005C0F00200008004082B003680E4A9342E8
:102B500004D00E4A93420CD002B070470C4B9A69D5
:102B600042F400629A619B6903F400630093009B46
:102B7000F2E7074BDA6942F00402DA61DB6903F03D
:102B800004030193019BE7E7002C0140000800408B
:102B90000010024000B587B0002302930393049312
:102BA000059302680D4B9A4202D007B05DF804FB12
:102BB00003F564439A6942F004029A619B6903F049
:102BC00004030193019B4FF4E063029302230393F8
:102BD000059302A9024801F05DFEE6E7002C0140E2
:102BE0000008014030B597B0002412941394149457
:102BF00015941094119409940A940B940C940D94C8
:102C00000E940F9420252A46214601A803F0DCFDEE
:102C10003748384B0360446085604FF44863C360B5
:102C200004614461846103F023F8002847D14FF424
:102C30008053129312A92E4803F01EF9002841D1A7
:102C40002B4803F041F800283FD110231093802334
:102C5000119310A9264803F091FA002838D1602377
:102C600009934FF448730A9300220B920C920D9231
:102C70000E920F9209A91E4803F084F858BB042253
:102C800009A91B4803F07EF840BB082209A918488F
:102C900003F078F828BB0023019302930393049375
:102CA00005934FF400520692089301A9104803F0CF
:102CB0009BFAC8B90E48FFF76DFF17B030BDFFF79C
:102CC00079FDB4E7FFF776FDBAE7FFF773FDBCE7E0
:102CD000FFF770FDC3E7FFF76DFDD0E7FFF76AFD73
:102CE000D3E7FFF767FDD6E7FFF764FDE2E700BF34
:102CF000140F0020002C014008B50A480A4B03605D
:102D00004FF4E133436000238360C36003610C220E
:102D100042618361C36103F01FFB00B908BDFFF787
:102D200049FDFBE72C10002000380140F0B587B0CA
:102D30000023029303930493059302682F4B9A4256
:102D400001D007B0F0BD044603F558439A6942F438
:102D500080429A619A6902F480420092009A9A69CC
:102D600042F008029A619B6903F008030193019BFA
:102D7000402302930223039303230593204F02A9C8
:102D8000384601F087FD80260296002503950495BC
:102D900002A9384601F07EFD1A4A536843F0E06309
:102DA00043F0040353601848184B03604560856086
:102DB000C660056145618561C56101F057FCB0B928
:102DC000114BE3635C621248124B036010234360B3
:102DD000002383608022C260036143618361C36119
:102DE00001F044FC30B90A4BA3635C62A9E7FFF72A
:102DF000E1FCE5E7FFF7DEFCF5E700BF0038014046
:102E0000000C014000000140A40F002058000240C7
:102E1000E80F00204400024000B583B001904FF657
:102E2000FF73012201A9034803F0C6FA019803B019
:102E30005DF804FB2C100020016000234360704704
:102E4000F8B504460E46076839464FF07E50FDF748
:102E50003FFE6168FDF746FF054631463846FDF7FF
:102E600041FF01462846FDF735FE6060F8BD0000D1
:102E7000FFF7FEFD0B480C490C4A002302E0D45832
:102E8000C4500433C4188C42F9D3094A094C0023B6
:102E900001E013600432A242FBD303F071FCFFF7A0
:102EA000CDFC704700000020000E00206CCD000813
:102EB000000E0020B4120020FEE7000A7047C0B2E6
:102EC00070474FF0000CFF220FE0520001331BB29D
:102ED000072B06DC12F0800FF7D0520082F01D02A3
:102EE000F4E70CF1010C0FFA8CFC8C4504DA10F8B5
:102EF0000C305A400023EBE7D243D0B2704708B5FC
:102F0000FFF7DFFF08BD000010B50C4C00222021A8
:102F1000204601F0D1FD01228021204601F0CCFDA8
:102F200000221021204601F0C7FD012000F076FFAD
:102F300001221021204601F0BFFD10BD0008014014
:102F400030B583B00024ADF80640FFF7DDFF154D26
:102F500022461021284601F0AFFD48F20103ADF8EA
:102F60000630114CFF2301220DF10601204602F02C
:102F7000D6FA4FF6FF73ADF80630FF2301220DF1AC
:102F80000601204602F0CBFAFF2301220DF10601D3
:102F9000204602F0C4FA01221021284601F08CFDDF
:102FA00003B030BD00080140B80E002010F4804F7F
:102FB0004FD02DE9F04F83B000AF82460C469046CB
:102FC000994610F4005F46D010F4805F45D0C7F8F2
:102FD00004D001335B009BB23B600733DB086A46D9
:102FE000A2EBC3039D46EB460846FFF766FF8DF84C
:102FF00000002046FFF763FF8DF8010000240FE07A
:10300000651C6E0038F81400FFF757FF0BF8150029
:10301000013638F81400FFF752FF0BF80600ACB287
:103020004C45EDD35046FFF74AFF04463B6803F09A
:10303000FE015846FFF763FF844206D10020D7F80F
:1030400004D00C37BD46BDE8F08FFFF779FFFF20B5
:10305000F5E7012070470220F3E70320F1E70000C5
:10306000F0B583B004460D460022ADF80620ADF859
:103070000220184F1021384601F01EFDADF8024025
:10308000154EFF2301220DF10201304602F047FAEE
:10309000FF23012201A9304602F03FFCFF23012259
:1030A0000DF10601304602F038FC012210213846AD
:1030B00001F002FD012301AA2146BDF80600FFF739
:1030C00075FF18B100232B8003B0F0BDBDF80430AC
:1030D0002B80F9E700080140B80E0020F0B583B05E
:1030E0000022ADF80620ADF80420164F1021384616
:1030F00001F0E2FC48F28805ADF80650124C4FF69C
:10310000FF7301220DF10601204602F008FA0F4E6E
:10311000FF2308223146204602F0FFFBFF23012255
:1031200001A9204602F0F9FB01221021384601F0E6
:10313000C3FC082332462946BDF80400FFF736FFDA
:1031400003B0F0BD00080140B80E00207C10002044
:1031500010B582B004460023ADF806300DF106012B
:1031600048F25100FFF77CFF88B9BDF80630C3F381
:103170000803ADF8063013F4807F03D0A3F5007385
:10318000ADF80630BDF80630238002B010BD002334
:103190002380FAE730B583B005460023ADF806304A
:1031A0000DF10600FFF7D4FF0446BDF90600FDF758
:1031B00045FD0649FDF78EFC0549FDF747FEFDF785
:1031C0002BF9C5E90001204603B030BD00001843CB
:1031D000FCA9314008B501221021054801F06CFC22
:1031E000FFF77CFF03490448FFF726FE08BD00BF38
:1031F000000801400AD7233D7410002070B584B048
:1032000004460022ADF80E20ADF80A20324E1021FF
:10321000304601F051FCADF80A40304DFF23012249
:103220000DF10A01284602F07AF9FF23012203A9D1
:10323000284602F072FBFF2301220DF10E01284601
:1032400002F06BFB01221021304601F035FC48F200
:1032500021039C4209D048F231039C4214D048F229
:1032600051039C4230D004B070BDBDF80C00C0F3D7
:103270000E00ADF80C00FDF7DDFC1949FDF732FD3D
:103280001849FDF7E3FDEEE7BDF80C30C3F30E037C
:10329000ADF80C3013F4804F05D06FEA43436FEA6A
:1032A0005343ADF80C30BDF90C00FDF7C7FC0146E7
:1032B0000D4C2046FFF7C4FD60680146FDF70AFC8F
:1032C0000A49FDF70FFDCEE76846FFF763FFDDE92A
:1032D0000001FDF7A9FBC6E700080140B80E002079
:1032E0000000B44300FEFF4674100020DA0F49408E
:1032F00070B504460D4606684FF07C514068FDF7F6
:10330000F1FC01463046FDF7E3FB06464FF07C51E9
:10331000A068FDF7E7FC01463046FDF7D9FB2860C1
:1033200008496068FDF7DEFC0021FDF7D3FB064687
:103330000449A068FDF7D6FC01463046FDF7C8FBFE
:10334000686070BDD7B35D3F2DE9F0410D4614466E
:103350001E460F68104600F0CBFC01463846FDF7CC
:10336000C1FC0746D5F80480204600F08DFC0146DC
:103370004046FDF7B7FC01463846FDF7ABFB306031
:103380002F6807F10047204600F07EFC01463846D2
:10339000FDF7A8FC07466D68204600F0A9FC014631
:1033A0002846FDF79FFC01463846FDF793FB706009
:1033B000BDE8F0812DE9F04105460C461646076848
:1033C000084600F095FC01463846FDF78BFC0746A1
:1033D000D5F80480204600F057FC01464046FDF732
:1033E00081FC01463846FDF773FB30602F682046AC
:1033F00000F04AFC01463846FDF774FC07466D684C
:10340000204600F075FC01462846FDF76BFC01469E
:103410003846FDF75FFB7060BDE8F0812DE9F843A9
:1034200016461D46D1F800804F689B493846FDF787
:1034300059FC044600213846FDF706FE002800F03E
:10344000B28021464046FDF709FE002839D02146CA
:103450004046FDF73DFB804621462046FDF73AFBFE
:10346000074601464046FDF735FB3146FDF73AFC7D
:1034700001464FF07E50FDF72BFB8849FDF732FCEB
:103480004FF07C51FDF72EFC044639463046FDF7DF
:1034900029FC8249FDF726FC2146FDF71BFB074668
:1034A00041463046FDF71EFC7C49FDF71BFC3946C2
:1034B000FDF710FB8046C5F800806F60AC60BDE88A
:1034C000F88304F100404146FDF7AAFD002834D0FE
:1034D00021464046FDF7FEFA814641462046FDF76B
:1034E000F7FA074601464846FDF7F4FA3146FDF77C
:1034F000F9FB01464FF07E50FDF7EAFA6749FDF708
:10350000F1FB4FF07C51FDF7EDFB04464946304698
:10351000FDF7E8FB6149FDF7E5FB2146FDF7DAFA27
:10352000804639463046FDF7DDFB5C49FDF7DAFBA6
:103530004146FDF7CFFA0746BDE721462046FDF795
:10354000C9FA074608F100402146FDF7C1FA0446D2
:1035500001463846FDF7BEFA3146FDF7C3FB01468A
:103560004FF07E50FDF7B4FA4C49FDF7BBFB4FF02E
:103570007C51FDF7B7FB804621463046FDF7B2FB94
:103580004649FDF7AFFB4146FDF7A4FA044639462C
:103590003046FDF7A7FB4149FDF7A4FB2146FDF7A7
:1035A00099FA074687E704F100404146FDF742FDDE
:1035B000002875D121464046FDF750FD002835D141
:1035C00041462046FDF784FA07464FF04041204629
:1035D000FDF788FB044601463846FDF77BFA314685
:1035E000FDF780FB01464FF07E50FDF771FA2B4945
:1035F000FDF778FB4FF07C51FDF774FB80463946B0
:103600003046FDF76FFB2549FDF76CFB4146FDF7A2
:1036100061FA074621463046FDF764FB1F49FDF776
:1036200061FB3946FDF756FA044644E708F10040CD
:103630002146FDF74DFA814621464046FDF748FAFE
:10364000044601464846FDF745FA3146FDF74AFB78
:1036500001464FF07E50FDF73BFA1049FDF742FB63
:103660004FF07C51FDF73EFB074621463046FDF703
:1036700039FB0A49FDF736FB3946FDF72BFA804640
:1036800049463046FDF72EFB0449FDF72BFB41462A
:10369000FDF720FA04460EE73ACD133F00004845F7
:1036A0004FF040412046FDF71DFB81462146404634
:1036B000FDF710FA804601464846FDF70BFA314601
:1036C000FDF710FB01464FF07E50FDF701FA0F4960
:1036D000FDF708FB4FF07C51FDF704FB0746314630
:1036E0004846FDF7FFFA0949FDF7FCFA3946FDF7B0
:1036F000F1F9044631464046FDF7F4FA0349FDF777
:10370000F1FA2146FDF7E6F98046D4E60000484587
:10371000F0B585B004AB03E90700019E00213046F7
:10372000FDF77EFC30B91D493046FDF797FC10B11E
:103730001A4E00E000260196029D00212846FDF762
:103740006FFC30B915492846FDF788FC10B1134DC0
:1037500000E000250295039C00212046FDF760FC57
:1037600030B90E492046FDF779FC10B10B4C00E052
:10377000002403940A4B1F683046FDF79FFC80B27B
:1037800078632846FDF79AFC80B2B8632046FDF7BF
:1037900095FC80B2F86305B0F0BD00BF000048455D
:1037A000140F002070B50446084604F17006324636
:1037B000616DFFF7FFFD04F5E2752B464FF07E5279
:1037C00031462046FFF72AFE95E80700FFF7A0FFE5
:1037D00070BD000000000000F8B5044600F018FBC2
:1037E000214B1B68C01AFDF725FA2049FDF77AFA2C
:1037F0000546FCF711FE1AA3D3E90023FDF7D6F81E
:1038000000B11A4D00F004FB174B1860D4F8B471E6
:10381000174E31683846FDF75BF9044637600021E2
:10382000FDF712FC98B120461249FDF717FC48B18C
:1038300000212046FDF712FC60B10F492046FDF73C
:1038400047F9044629462046FDF700FBF8BD04F180
:103850000040E9E708492046FDF73CF90446F1E756
:10386000FCA9F1D24D62503F941000206F12833AB0
:1038700090100020DB0F4940DB0FC94010B5044613
:1038800048F22100FFF7BAFCC4F8B4010949FDF77A
:1038900029FAC4F8B4012046FFF79EFF00F100406A
:1038A000C4F8B80148F25100FFF7A8FCC4F8BC0105
:1038B00010BD00BF35FA8E3CF0B585B00446FFF769
:1038C000DDFFB4F88C00C0F56E600530FDF7B6F989
:1038D0003949FDF707FAC4F88000B4F88E00C0F546
:1038E00072600F30FDF7AAF93349FDF7FBF9C4F810
:1038F0008400B4F89000C0F572600330FDF79EF9C3
:103900002D49FDF7EFF9C4F8880004F17805294640
:1039100004F18000FFF7ECFC04F16803626D2946B6
:103920002046FFF711FDA16E04F14000FFF788FA71
:10393000E16E04F14800FFF783FAD4F8B81104F1FE
:103940003800FFF77DFA1D49D4F8B401FDF7CAF934
:10395000D4F8C011FDF7BCF800F0D6F96065184B3B
:103960001A68E16B04F5927000F0E1F8E06500235D
:1039700023664FF07C536366626D04F15801204664
:10398000FFF710FFE66BE76DD4F8B401FCF744FDD8
:1039900004460D463846FCF73FFDCDE902013046AE
:1039A000FCF73AFDCDE9000122462B46054802F01E
:1039B0005DFF05B0F0BD00BFD5B4CE3A000030C108
:1039C0002C000020E0C7000830B583B004464FF05B
:1039D00082430093002501952A466946FFF7E2FEDF
:1039E000C82000F01BFA2046FFF748FFD4F8B401C6
:1039F0000A4B18600A49FDF775F9D4F8C011FDF7B4
:103A000067F800F081F9C4F8C001009501952A46D5
:103A100069462046FFF7C6FE03B030BD8C1000207B
:103A2000000030C138B50446002343658365294B47
:103A3000C365FFF7CFFB284D0021284602F030FB7D
:103A40000421284602F02CFB0821284602F028FB1E
:103A50000C21224802F024FB214D284600F05EFC98
:103A6000042204F18C01284600F010FB01224FF4DF
:103A700000411C4801F020F82046FFF7A5FF1A4D31
:103A8000294604F14800FFF7D7F9294604F1400020
:103A9000FFF7D2F9154904F13800FFF7CDF9144DBD
:103AA0002A46002104F1940000F028F82A4600215B
:103AB00004F1DC0000F022F80E4A002104F59270B7
:103AC00000F01CF80C4A002104F5B67000F016F85E
:103AD00038BD00BFCDCC4C3E140F00205C0F002041
:103AE0001C0E0020000C01406F12833BCDCCCC3D5E
:103AF000300000201800002004000020B0B1AAB15E
:103B0000017011684160516881609168C160D1683D
:103B100001611269426100228263426302630262B0
:103B2000C2628262426242640264C26370470028D9
:103B300000F0A7802DE9F8430F4616460446D0F85A
:103B40004090C0F84490D0F83C80C0F840801046C7
:103B5000FCF7BEFF0546E063A661E7612378002B12
:103B600046D16168FDF7BEF881466062A1682846CB
:103B7000FDF7B8F8A16AFCF7ADFF0746A062636BDA
:103B8000A363236B636341462846FCF7A1FF2063D0
:103B9000E168FDF7A7F80546E062666931463846F8
:103BA000FDF75CFA88B1A662A16A4846FCF792FF6D
:103BB00001462846FCF78EFF0546206226693146FD
:103BC000FDF74CFA58B1266214E006F10046314682
:103BD0003846FDF725FA0028E6D0A662E4E706F1AC
:103BE000004631462846FDF71BFA18B1266201E06F
:103BF000012B02D0206ABDE8F88366684146FCF7D5
:103C000067FF01463046FDF76DF806466062A16821
:103C10002846FDF767F80746A062636BA363236B32
:103C2000636341464046FCF755FF01462846FCF7D2
:103C30004FFF01464846FCF74DFF2063E168FDF762
:103C400051F80546E06239463046FCF743FF01462D
:103C50002846FCF73FFF216AFCF73CFF054620623F
:103C600026693146FDF7FAF908B12662C2E706F186
:103C7000004631462846FDF7D3F90028BAD026621F
:103C8000B8E700207047000008B51749FDF72AF88B
:103C90004FF08941FDF726F8FDF7EAF9C0F3090373
:103CA00010F4407F03D1114A52F8230008BD10F4EC
:103CB000007F05D1C3F500730C4A52F82300F5E7E5
:103CC000B3F5407F07DAA3F50073084A52F82300E2
:103CD00000F10040EAE7C3F58063044A52F823008C
:103CE00000F10040E2E700BF83F9223E44000020DB
:103CF00008B50349FCF7EEFEFFF7C6FF08BD00BF9D
:103D0000DB0FC93F0000000010B5FCF785FB0AA3DC
:103D1000D3E9002302F0B0FBFCF786FE0446002145
:103D2000FDF792F908B1204610BD05492046FCF781
:103D3000D1FE0446F7E700BF00000060FB211940F8
:103D4000DB0FC940012800D070474FF6FF7399423E
:103D5000FAD1034A0023C2F88C30C2F89030F3E75E
:103D60009810002008B50348FFF75CFE0148FFF7F4
:103D7000A3FDFBE79810002008B54FF6FF71012066
:103D8000FFF7E0FF08BD000010B504460E4B1878A1
:103D90004FF47A73B3FBF0F30C4A1068B0FBF3F006
:103DA00000F03AFC68B90F2C01D901200AE000228A
:103DB00021464FF0FF3000F0E9FB054B1C6000206E
:103DC00000E0012010BD00BF4804002000000020DA
:103DD0004C04002008B5074A136843F01003136031
:103DE000032000F0C1FB0F20FFF7CEFFFEF79CFD84
:103DF000002008BD00200240034A1168034B1B78D5
:103E00000B441360704700BF681200204804002074
:103E1000014B1868704700BF6812002038B504468F
:103E2000FFF7F6FF0546B4F1FF3F02D0044B1B78C5
:103E30001C44FFF7EDFF401BA042FAD338BD00BF82
:103E400048040020704708B5436A9A6A12F0500F80
:103E50001ED19A6A42F400729A621A68926802F459
:103E60006022B2F5602F03D01846FFF7EBFF08BDC4
:103E70001A7B002AF8D19A6A22F480729A629A6AAE
:103E800012F4805FF0D19A6A42F001029A62EBE785
:103E90001B6A1B6B9847EAE7704708B5406AFFF753
:103EA000FBFF08BD704708B5406A836A43F04003D2
:103EB0008362C36A43F00403C362FFF7F3FF08BDE4
:103EC00030B482B00022019290F82420012A00F040
:103ED00091800346012280F824204A68062A2DD8C2
:103EE0000468606B02EB8202053A4FF01F0C0CFA7B
:103EF00002FC20EA0C000D6805FA02F2024362633C
:103F00000A68092A3AD91C68E06802EB42021E3AA4
:103F10004FF0070C0CFA02FC20EA0C008D6805FA41
:103F200002F20243E2600A68103A012A36D9002000
:103F3000002283F8242002B030BC70470C2A0ED82F
:103F40000568286B02EB8202233A1F24944020EA82
:103F500004000C6804FA02F202432A63D0E7056801
:103F6000E86A02EB8202413A1F24944020EA0400EE
:103F70000C6804FA02F20243EA62C1E71C68206995
:103F800002EB42024FF0070C0CFA02FC20EA0C0094
:103F90008D6805FA02F202432261C4E71A681648E6
:103FA000824205D09A6A42F020029A620120BFE75D
:103FB000906810F4000F1BD1906840F400009060EE
:103FC0000A68102A01D00020B2E70C4A12680C4996
:103FD000A1FB0212920C02EB82025200019202E05B
:103FE000019A013A0192019A002AF9D100209FE733
:103FF00000209DE702209EE70024014000000020F1
:1040000083DE1B4330B583B00023019303689A68B5
:1040100012F0010F33D104469A6842F001029A600F
:10402000184B1B68184AA2FB03239B0C019302E068
:10403000019B013B0193019B002BF9D1FFF7E8FEA7
:10404000054623689B6813F0010F16D1FFF7E0FEC9
:10405000431B022BF5D923689B6813F0010FF0D1A5
:10406000A36A43F01003A362E36A43F00103E3622F
:10407000002384F82430012002E0002000E000202A
:1040800003B030BD0000002083DE1B43F8B50446BA
:104090000D46164601684448814259D0434B994227
:1040A00056D094F82430012B7CD0012384F824309E
:1040B0002046FFF7A7FF074600286ED1A16A21F42A
:1040C000706121F0010141F48071A1622268374BD7
:1040D0009A4244D0A36A23F48013A362536813F472
:1040E000806F05D0A36A23F4405343F48053A36246
:1040F000A36A13F4805F48D0E36A23F00603E36207
:10410000002384F82430236A294A9A62236A294AC0
:10411000DA62236A284A1A6323686FF002021A607F
:104120002268936843F480739360216833462A467B
:104130004C31206A00F0D0FA23689A6802F46022B9
:10414000B2F5602F24D09A6842F480129A6027E07A
:10415000154B5B6813F4702FA3D0012720E0A3F563
:1041600080635B6813F4702FB4D0A36A43F48013A8
:10417000A3620D4B5B6813F4806FB9D0A36A23F47C
:10418000405343F48053A362B2E70023E362B7E7EE
:104190009A6842F4A0029A6002E0002384F8243076
:1041A0003846F8BD0227FBE7002401400028014003
:1041B000473E00089B3E0008A73E000838B503684C
:1041C0009A6812F0010F01D1002038BD04469A68A8
:1041D00022F001029A60FFF71BFE054623689B68E8
:1041E00013F0010F13D0FFF713FE431B022BF5D979
:1041F00023689B6813F0010FF0D0A36A43F010030B
:10420000A362E36A43F00103E3620120DDE70020DB
:10421000DBE7000000287BD070B50446836A002BE2
:104220004DD02046FFF7CAFFA36A13F0100369D1EF
:10423000002867D1A26A22F4885222F0020242F0DA
:104240000202A2626268E1690A43217B42EA4102FA
:10425000A568B5F5807F02D0012D36D01D46267D9C
:10426000012E35D02668716821F4694129437160B7
:104270002568AE68274931401143A960A168B1F5AE
:10428000807F01D0012902D12369013B1B052568EC
:10429000E96A21F470010B43EB62236899681E4BB5
:1042A0000B409A4225D0A36A23F0120343F0100377
:1042B000A362E36A43F00103E362012027E0C362E3
:1042C00080F82430FEF71EF9ABE74FF48075C6E79F
:1042D00031B9A169013945EA413141F40065C1E7CD
:1042E000A16A41F02001A162E16A41F00101E162AD
:1042F000B8E70023E362A36A23F0030343F001035A
:10430000A36204E0A36A43F01003A362012070BD1E
:1043100001207047FDF7E1FFFE0E1FFF70B582B070
:104320000023019390F82430012B72D0044601231E
:1043300080F82430FFF742FF2046FFF763FE054672
:1043400028B1002384F82430284602B070BDA36A47
:1043500023F4885323F0020343F00203A3622E4B9D
:104360001E68022000F05EFFB6FBF0F676000196B4
:1043700002E0019B013B0193019B002BF9D12268D4
:10438000936843F008039360FFF742FD06462368F5
:104390009A6812F0080F14D0FFF73AFD801B0A2824
:1043A000F5D923689B6813F0080FF0D0A36A23F0B7
:1043B000120343F01003A362002384F82430012584
:1043C000C2E79A6842F004029A60FFF721FD0646B0
:1043D00023689B6813F0040F14D0FFF719FD801BAE
:1043E0000A28F5D923689B6813F0040FF0D0A36A5C
:1043F00023F0120343F01003A362002384F8243057
:104400000125A1E7A36A23F0030343F00103A3629C
:1044100097E7022598E700BF00000020002800F081
:10442000A18038B5044690F82030D3B122681368D3
:1044300043F001031360FFF7EBFC054623685A685D
:1044400012F0010F10D1FFF7E3FC401B0A28F5D949
:10445000636A43F400336362052384F8203001204B
:1044600038BDFEF7B9F8E1E71A6822F002021A60D7
:10447000FFF7CEFC054623685A6812F0020F0DD0F4
:10448000FFF7C6FC401B0A28F5D9636A43F40033E2
:104490006362052384F820300120E1E7227E012AAF
:1044A0003DD01A6822F080021A60637E012B3BD057
:1044B0002268136823F040031360A37E012B39D0D8
:1044C0002268136823F020031360E37E012B37D0AA
:1044D0002268136843F010031360237F012B35D04B
:1044E0002268136823F008031360637F012B33D025
:1044F0002268136823F004031360A368E26813437F
:1045000022691343626913436268013A21681343C5
:10451000CB6100206062012384F82030A0E71A6894
:1045200042F080021A60C0E72268136843F040033B
:104530001360C2E72268136843F020031360C4E7E6
:104540002268136823F010031360C6E7226813681B
:1045500043F008031360C8E72268136843F00403BC
:104560001360CAE701207047074AD36823F4E06369
:104570001B041B0C000200F4E060034343F0BF6324
:1045800043F40033D360704700ED00E000B5194BF1
:10459000DB68C3F30223C3F1070CBCF1040F28BF8F
:1045A0004FF0040C03F1040EBEF1060F18D9033BC3
:1045B0004FF0FF3E0EFA0CFC21EA0C0199400EFA76
:1045C00003F322EA0303194300280BDB0901C9B2F4
:1045D00000F1604000F5614080F800135DF804FBD5
:1045E0000023E5E700F00F000901C9B2024B19549E
:1045F000F4E700BF00ED00E014ED00E0002807DB69
:1046000000F01F02400901239340024A42F8203083
:10461000704700BF00E100E00138B0F1807F0BD2AD
:104620004FF0E0235861054AF02182F82310002062
:10463000986107221A6170470120704700ED00E081
:1046400030B40124056CAC40C56B6C6004686360D9
:104650004368102B05D0036899600368DA6030BCAA
:10466000704703689A600368D960F8E760B310B4D4
:1046700002460168154B0B441548A0FB03031B09B8
:104680009B001364134BD363022382F82130086824
:1046900020F47F5020F03000536894682343D4689E
:1046A0002343146923435469234394692343D469FE
:1046B000234303430B6000209063012382F82130E1
:1046C00082F8200010BC704701207047F8FFFDBF42
:1046D000CDCCCCCC0000024038B5044690F8200088
:1046E000012832D0012084F8200094F82100C0B2C3
:1046F000012804D0002384F82030022038BD022095
:1047000084F821000020A0632568286820F00100BB
:1047100028602046FFF794FFE36A5BB122681368C4
:1047200043F00E0313602268136843F00103136023
:104730000020E3E72268136823F004031360226873
:10474000136843F00A031360EDE70220D6E7000088
:1047500038B5C36B1A6804682568016C04238B4064
:10476000134235D015F0040F32D0236813F0200F18
:1047700003D1236823F0040323600368434A934270
:1047800014D01432934218D01432934217D01432FA
:10479000934217D01432934217D01432934202D06E
:1047A0004FF0806203E04FF4800200E00422384BB7
:1047B0005A60C36A03B1984738BD4022F7E74FF407
:1047C0008062F4E74FF48042F1E74FF48022EEE795
:1047D00002238B4013423CD015F0020F39D02368DE
:1047E00013F0200F06D1236823F00A03236001236E
:1047F00080F821300368254A934214D01432934242
:104800001CD0143293421BD0143293421BD014326A
:1048100093421BD01432934202D04FF0007203E057
:104820004FF4001200E00222194B5A60002380F876
:104830002030836A002BBFD09847BDE72022F3E7E2
:104840004FF40072F0E74FF40052EDE74FF40032FE
:10485000EAE7082303FA01F11142ADD015F0080F81
:10486000AAD0236823F00E032360026CC16B0123DE
:1048700003FA02F24A60836380F82130002380F853
:104880002030036B002B97D0984795E70800024033
:104890000000024070B582B00024A446A6E0804D1E
:1048A000AA4210D007D97F4DAA420CD005F5803519
:1048B000AA4208D013E0A5F58015AA4203D005F559
:1048C0007025AA4207D18A68002A58D0012A51D0FF
:1048D0004361082403E0A5F58015AA42F3D0BEF198
:1048E000FF0F4ED80646BEF1FF0F4CD84FEA8C02A0
:1048F00033680F25954023EA050304FA02F21343B7
:1049000033604B6813F0805F6ED0674B9A6942F05A
:1049100001029A619B6903F001030193019B4FEA35
:104920009C02951C614B53F825600CF003039D001D
:104930000F23AB4026EA03065D4B984229D003F5CE
:104940008063984200F08E8003F58063984200F007
:104950008B8003F58063984219D004231AE0CC6859
:10496000BDE7CC680434BAE7CC680834B7E7CC6854
:104970000C34B4E703610824B1E70024AFE7042452
:10498000ADE7061DAFE7ACF108029200B0E70323E4
:1049900000E00023AB4033430232444D45F822305F
:1049A0004B6813F4801F61D0424A936843EA0E03B8
:1049B00093604B6813F4001F5ED03E4AD36843EA0D
:1049C0000E03D3604B6813F4003F5BD0394A536841
:1049D00043EA0E0353604B6813F4803F58D0354AC6
:1049E000136843EA0E0313600CF1010C0A6832FAF3
:1049F0000CF353D0012303FA0CF302EA030E33EA5B
:104A00000202F1D14A68122A3FF649AF122A3FF654
:104A100066AF01A555F822F0C74800085F490008B5
:104A2000694900087B490008DF480008DF480008A2
:104A3000DF480008DF480008DF480008DF480008BA
:104A4000DF480008DF480008DF480008DF480008AA
:104A5000DF480008DF480008DF4800086349000815
:104A60006F490008012395E7022393E7114A9368F1
:104A700023EA0E0393609CE70E4AD36823EA0E03F1
:104A8000D3609FE70B4A536823EA0E035360A2E703
:104A9000084A136823EA0E031360A5E702B070BD4D
:104AA0000000221000003110001002400000014000
:104AB00000080140000401400AB101617047090487
:104AC0000161704782B0084B1B68084AA2FB0323B0
:104AD0005B0A00FB03F3019300BF019B5A1E019286
:104AE000002BF9D102B0704700000020D34D6210B6
:104AF000002800F0F18170B582B00446036813F01D
:104B0000010F2CD0994B5B6803F00C03042B1DD0D4
:104B1000964B5B6803F00C03082B12D06368B3F567
:104B2000803F41D0002B55D103F1804303F504337E
:104B30001A6822F480321A601A6822F480221A60FD
:104B400037E08A4B5B6813F4803FE7D0874B1B68E4
:104B500013F4003F03D06368002B00F0BF8123688B
:104B600013F0020F75D0814B5B6813F00C0F5FD010
:104B70007E4B5B6803F00C03082B54D02369002B99
:104B800000F08A807A4B01221A60FFF741F905464E
:104B9000764B1B6813F0020F75D1FFF739F9401BF4
:104BA0000228F5D903209EE1704A136843F480334C
:104BB0001360636843B3FFF72BF905466B4B1B6823
:104BC00013F4003FCBD1FFF723F9401B6428F5D93C
:104BD000032088E1B3F5A02F09D0644B1A6822F4B2
:104BE00080321A601A6822F480221A60E1E703F129
:104BF0008043A3F53C331A6842F480221A601A6895
:104C000042F480321A60D4E7FFF702F90546574BA9
:104C10001B6813F4003FA2D0FFF7FAF8401B64288A
:104C2000F5D903205FE1514B5B6813F4803FA5D1B8
:104C30004E4B1B6813F0020F03D02369012B40F089
:104C40004F814A4A136823F0F803616943EAC103BC
:104C50001360236813F0080F33D0A369002B5CD0D6
:104C6000434B0122C3F88024FFF7D2F805463F4B9F
:104C70005B6A13F0020F21D1FFF7CAF8401B02282C
:104C8000F5D903202FE1394A136823F0F80361694D
:104C900043EAC1031360DCE7354B00221A60FFF7DB
:104CA000B7F80546314B1B6813F0020FD1D0FFF760
:104CB000AFF8401B0228F5D9032014E10120FFF7CB
:104CC00001FF236813F0040F00F09680274BDB6987
:104CD00013F0805F34D1254BDA6942F08052DA61FB
:104CE000DB6903F080530193019B0125214B1B6875
:104CF00013F4807F26D0E368012B3DD0002B53D1E5
:104D000003F1804303F504331A6A22F001021A62A8
:104D10001A6A22F004021A6233E0154B0022C3F82B
:104D20008024FFF775F80546104B5B6A13F0020FFD
:104D3000C7D0FFF76DF8401B0228F5D90320D2E059
:104D40000025D3E70B4A136843F480731360FFF721
:104D50005FF80646074B1B6813F4807FCBD1FFF743
:104D600057F8801B6428F5D90320BCE000100240EE
:104D700000004242007000405F4A136A43F00103A2
:104D80001362E36833B3FFF743F806465A4B1B6AD6
:104D900013F0020F2FD1FFF73BF8801B41F288334D
:104DA0009842F3D903209EE0052B09D0524B1A6A92
:104DB00022F001021A621A6A22F004021A62E0E783
:104DC0004D4B1A6A42F004021A621A6A42F001025A
:104DD0001A62D6E7FFF71CF80646474B1B6A13F02A
:104DE000020F08D0FFF714F8801B41F28833984275
:104DF000F3D9032077E0E5B9E369002B72D03E4A8E
:104E0000526802F00C02082A56D0022B17D03B4BF6
:104E100000221A66FEF7FCFF0446374B1B6813F0AE
:104E2000007F47D0FEF7F4FF001B0228F5D90320CE
:104E300059E0314AD36923F08053D361DCE72F4B2B
:104E400000221A66FEF7E4FF05462B4B1B6813F0A1
:104E5000007F06D0FEF7DCFF401B0228F5D90320B7
:104E600041E0236AB3F5803F1AD023494B6823F40D
:104E70007413226A606A024313434B601F4B012282
:104E80001A66FEF7C5FF04461B4B1B6813F0007F34
:104E90000ED1FEF7BDFF001B0228F5D9032022E04A
:104EA000154A536823F40033A1680B435360DCE7D1
:104EB000002018E0002016E0012B16D00E4B5B6896
:104EC00003F48031226A914211D103F47013626AB3
:104ED00093420ED1002006E001207047012002E03D
:104EE000012000E0002002B070BD0120FBE701209E
:104EF000F9E70120F7E700BF00100240000042423E
:104F00000F4B5B6803F00C02082A01D00D48704774
:104F1000C3F383420C49885C13F4803F0BD0084BE9
:104F20005B68C3F34043094AD35C064A02FB00F0C6
:104F3000B0FBF3F07047064B03FB00F0704700BF77
:104F40000010024000127A00ECC70008FCC70008FD
:104F500000093D00002800F0A08070B50D46044611
:104F6000524B1B6803F007038B420BD24F4A136866
:104F700023F007030B431360136803F007038B420E
:104F800040F08D80236813F0020F17D013F0040F48
:104F900004D0474A536843F4E0635360236813F036
:104FA000080F04D0424A536843F460535360404AA8
:104FB000536823F0F003A1680B435360236813F098
:104FC000010F31D06368012B20D0022B25D0384A45
:104FD000126812F0020F64D035494A6822F00302C9
:104FE00013434B60FEF714FF0646314B5B6803F03A
:104FF0000C036268B3EB820F16D0FEF709FF801B2B
:1050000041F288339842F0D9032045E0284A1268DB
:1050100012F4003FE0D101203EE0254A126812F070
:10502000007FD9D1012037E0204B1B6803F0070334
:10503000AB420AD91D4A136823F007032B431360C0
:10504000136803F00703AB422DD1236813F0040F5C
:1050500006D0174A536823F4E063E1680B435360BA
:10506000236813F0080F07D0114A536823F46053E4
:10507000216943EAC1035360FFF742FF0C4B5B68B1
:10508000C3F303130B4AD35CD8400B4B18600B4B94
:105090001868FEF779FE002070BD012070470120DE
:1050A000FAE70120F8E70120F6E700BF0020024000
:1050B00000100240C8C70008000000204C04002077
:1050C000014B1868704700BF0000002008B5FFF7CB
:1050D000F7FF044B5B68C3F30223034AD35CD84059
:1050E00008BD00BF00100240D8C7000808B5FFF790
:1050F000E7FF044B5B68C3F3C223034AD35CD84089
:1051000008BD00BF00100240D8C7000870B582B0CB
:105110000446036813F0010F36D03F4BDB6913F0F0
:10512000805F49D13C4BDA6942F08052DA61DB6939
:1051300003F080530193019B0125384B1B6813F446
:10514000807F3BD0344B1B6A13F4407313D06268EA
:1051500002F440729A420ED02F4A136A23F4407030
:105160002F490126C1F840640026C1F8406410624E
:1051700013F0010F36D1284A136A23F44073616893
:105180000B431362002D3ED1236813F0020F06D0AB
:10519000214A536823F44043A1680B4353602368BA
:1051A00013F0100F34D01C4A536823F48003E168D5
:1051B0000B43536000202CE00025BEE7174A13681C
:1051C00043F480731360FEF723FE0646134B1B68FF
:1051D00013F4807FB6D1FEF71BFE801B6428F5D93F
:1051E000032016E0FEF714FE06460B4B1B6A13F075
:1051F000020FC0D1FEF70CFE801B41F288339842AB
:10520000F3D9032005E0D36923F08053D361BBE7D2
:10521000002002B070BD00BF0010024000700040CE
:105220000000424208B502284ED0102803D00128C1
:1052300028D0002008BD2B4B5A68186810F08070E9
:10524000F8D0C2F383432849C85C12F4803F15D0DC
:10525000244B5B68C3F34043244AD25C244BB3FB2A
:10526000F2F303FB00F01F4B5B6813F4800FE1D1F6
:105270004000204BA3FB00304008DBE71E4B03FB44
:1052800000F0F0E7174B1B6A40F202321A40B2F509
:10529000817F24D003F44073B3F5007F04D0B3F5CD
:1052A000407F09D00020C5E70E4A526A12F0020F73
:1052B000F5D049F64040BDE70A4B186810F40030BD
:1052C000B8D04FF22440B5E7FFF710FF054B5B68FD
:1052D000C3F3813301335B00B0FBF3F0AAE74FF473
:1052E0000040A7E70010024000C8000810C80008EE
:1052F00000127A00ABAAAAAA00093D002DE9F047E6
:1053000082B00546884617461E46FEF781FD0A9B79
:105310001B1A03EB0609FEF77BFD82462B4B1B682D
:10532000C3F3CB3309FB03F301932B689C6838EA82
:1053300004030CBF4FF0010C4FF0000CBC4540D0F3
:10534000B6F1FF3FF1D0FEF763FDA0EB0A00484540
:105350000AD2B9F1000F07D0019A02B14A46019B67
:10536000013B01939146E0E72A68536823F0E0038C
:1053700053606B68B3F5827F0BD0AB6AB3F5005F07
:1053800014D0012385F85130002385F850300320D4
:1053900018E0AB68B3F5004F02D0B3F5806FECD1E5
:1053A0002A68136823F040031360E6E72A6813684D
:1053B00023F4005313602A68136843F40053136006
:1053C000DFE7002002B0BDE8F08700BF000000204A
:1053D00010B582B004460B46009200228021FFF7F0
:1053E0008DFF08B902B010BD636D43F02003636503
:1053F0000320F7E710B582B004460B464168B1F5CB
:10540000827F10D06168B1F5827F03D1A168B1F5C8
:10541000806F15D00092002280212046FFF76EFF9A
:10542000E0B902B010BD8168B1F5004F02D0B1F50E
:10543000806FE7D12068016821F040010160E1E759
:105440000092002201212046FFF758FF0028E8D0F3
:10545000636D43F0200363650320E2E7636D43F06F
:10546000200363650320DCE7002856D010B504460E
:10547000436A33B94368B3F5827F05D00023C36123
:1054800002E00023036143610023A36294F85130DA
:10549000002B3CD0022384F851302268136823F09B
:1054A00040031360636803F48273A26802F4044249
:1054B0001343E26802F400621343226902F002021D
:1054C0001343626902F001021343A26902F40072FD
:1054D0001343E26902F038021343226A02F08002A9
:1054E0001343A26A02F40052216813430B60638BDA
:1054F000226803F0040353602268D36923F4006335
:10550000D36100206065012384F8513010BD84F818
:1055100050302046FDF7CEF9BCE7012070472DE959
:10552000F04383B01D4690F85030012B00F0D1803D
:10553000044688469146012380F85030FEF768FC07
:10554000074694F85160F6B2012E40F0BA80B8F1E7
:10555000000F00F0B780B9F1000F00F0B380032313
:1055600084F8513000236365C4F83080A4F8349087
:10557000A4F83690A363A387E38763642364A368D6
:10558000B3F5004F1ED023681A6812F0400F03D104
:105590001A6842F040021A60E368B3F5006F1CD04D
:1055A000636813B1B9F1010F55D1226B23681278EA
:1055B0001A73236B01332363E38E9BB2013B9BB2CF
:1055C000E38648E02268136823F0400313602268F2
:1055D000136843F480431360D5E7636813B1B9F1EE
:1055E000010F15D1226B23681288DA60236B023316
:1055F0002363E38E9BB2013B9BB2E38608E0FEF798
:1056000007FCC01BA84202D3B5F1FF3F15D1A5B1DD
:10561000E38E9BB2002B3CD023689A6812F0020FF5
:10562000EDD0226B1288DA60236B02332363E38EA2
:105630009BB2013B9BB2E386EAE7012384F8513039
:1056400003263FE0FEF7E4FBC01BA84202D3B5F1FE
:10565000FF3F19D1C5B1E38E9BB2D3B123689A68DD
:1056600012F0020FEED0226B12781A73236B013303
:105670002363B4F836C01FFA8CFC0CF1FF3C1FFA10
:105680008CFCA4F836C0E6E7012384F851300326E9
:1056900018E03A4629462046FFF79AFE08B1202333
:1056A0006365A36833B901932368DA6801929B6844
:1056B0000193019B636D2BB9012384F851300026BF
:1056C00000E00226002384F85030304603B0BDE8E5
:1056D000F0830226F9E72DE9F04383B01F460A9DC7
:1056E00090F85030012B00F0168104468846914610
:1056F000012380F85030FEF78BFB064694F85130BA
:10570000DBB26268012B0AD0B2F5827F40F0F080F4
:10571000A268002A40F0F380042B40F0F280B8F138
:10572000000F00F0F080B9F1000F00F0EE80002FC4
:1057300000F0ED8094F85130DBB2042B02D0052349
:1057400084F8513000236365C4F83890E787A78751
:10575000C4F83080E786A7862364636423681A68E8
:1057600012F0400F03D11A6842F040021A60E36859
:10577000B3F5006F11D063680BB1012F0BD1226B11
:10578000236812781A73236B01332363E38E9BB271
:10579000013B9BB2E38601276EE063680BB1012FEA
:1057A0000BD1226B23681288DA60236B02332363E8
:1057B000E38E9BB2013B9BB2E38601271BE023688B
:1057C0009A6812F0010F0ED0E28F92B25AB1DA68E5
:1057D000A36B1A80A36B0233A363E38F9BB2013BDD
:1057E0009BB2E3870127FEF713FB801BA84202D37D
:1057F000B5F1FF3F1ED1E38E9BB21BB9E38F9BB285
:10580000002B5CD023689A6812F0020FD7D0E28E8A
:1058100092B2002AD3D0002FD1D0226B1288DA6046
:10582000236B02332363E38E9BB2013B9BB2E3867F
:105830000027C4E7012384F85130032059E023688E
:105840009A6812F0010F0ED0E28F92B25AB1DA6864
:10585000A36B1A70A36B0133A363E38F9BB2013B6D
:105860009BB2E3870127FEF7D3FA831BAB4202D337
:10587000B5F1FF3F1ED1EDB1E38E9BB213B9E38FBB
:105880009BB2E3B123689A6812F0020FD7D0E28E80
:1058900092B2002AD3D0002FD1D0226B12781A7383
:1058A000236B01332363E38E9BB2013B9BB2E38600
:1058B0000027C4E7012384F85130032019E0324661
:1058C00029462046FFF784FD70B9A36833B90193D8
:1058D0002368DA6801929B680193019B636DC3B9E9
:1058E000012384F8513004E020236365012000E0A7
:1058F0000220002384F8503003B0BDE8F08302207A
:10590000F7E70220F5E70120F3E70120F1E70120A6
:10591000EFE70120EDE70220EEE72DE9F04383B049
:10592000044690F85160F6B2012E40F0AB808846F4
:1059300091461D464368B3F5827F32D094F85030CB
:10594000012B00F0A780012384F85030FEF760FAA5
:105950000746B8F1000F00F09680B9F1000F00F093
:105960009280042384F8513000236365C4F83880A2
:10597000A4F83C90A4F83E902363A386E3862364B6
:105980006364A368B3F5004F18D023681A6812F057
:10599000400F03D11A6842F040021A60E3680BB36B
:1059A00043E08368002BC9D1042380F8513000956F
:1059B00013460A46FFF78FFE064667E02268136823
:1059C00023F0400313602268136823F480431360BC
:1059D000DBE7FEF71DFAC01BA84202D3B5F1FF3F7B
:1059E00015D1A5B1E38F9BB2002B3CD023689A68F8
:1059F00012F0010FEDD0A26B1B7B1370A36B013370
:105A0000A363E38F9BB2013B9BB2E387EAE70123E9
:105A100084F85130032636E0FEF7FAF9C01BA8429D
:105A200002D3B5F1FF3F19D1C5B1E38F9BB2D3B11A
:105A300023689A6812F0010FEED0DA68A36B1A801F
:105A4000A36B0233A363B4F83EC01FFA8CFC0CF1C5
:105A5000FF3C1FFA8CFCA4F83EC0E6E7012384F863
:105A6000513003260FE03A4629462046FFF7C2FC94
:105A700008B120236365636D2BB9012384F851308D
:105A8000002600E00226002384F85030304603B0A0
:105A9000BDE8F0830226F9E770B4036A026A22F0D7
:105AA000010202624668826922F073020C6844EACD
:105AB000020523F002028B6813430D4CA04209D06B
:105AC0000B4CA0420DD0466085614A684263036278
:105AD00070BC704723F00803CA68134323F0040323
